{
    "contractName": "ElectionFact",
    "abi": [
        {
            "constant": true,
            "inputs": [
                {
                    "name": "email",
                    "type": "string"
                }
            ],
            "name": "getDeployedElection",
            "outputs": [
                {
                    "name": "",
                    "type": "address"
                },
                {
                    "name": "",
                    "type": "string"
                },
                {
                    "name": "",
                    "type": "string"
                }
            ],
            "payable": false,
            "stateMutability": "view",
            "type": "function"
        },
        {
            "constant": false,
            "inputs": [
                {
                    "name": "email",
                    "type": "string"
                },
                {
                    "name": "election_name",
                    "type": "string"
                },
                {
                    "name": "election_description",
                    "type": "string"
                }
            ],
            "name": "createElection",
            "outputs": [],
            "payable": false,
            "stateMutability": "nonpayable",
            "type": "function"
        }
    ],
    "bytecode": "608060405234801561001057600080fd5b50611b33806100206000396000f30060806040526004361061004b5763ffffffff7c010000000000000000000000000000000000000000000000000000000060003504166337f4654981146100505780634a6cf3a9146101ba575b600080fd5b34801561005c57600080fd5b506040805160206004803580820135601f81018490048402850184019095528484526100a99436949293602493928401919081908401838280828437509497506102919650505050505050565b604051808473ffffffffffffffffffffffffffffffffffffffff1673ffffffffffffffffffffffffffffffffffffffff1681526020018060200180602001838103835285818151815260200191508051906020019080838360005b8381101561011c578181015183820152602001610104565b50505050905090810190601f1680156101495780820380516001836020036101000a031916815260200191505b50838103825284518152845160209182019186019080838360005b8381101561017c578181015183820152602001610164565b50505050905090810190601f1680156101a95780820380516001836020036101000a031916815260200191505b509550505050505060405180910390f35b3480156101c657600080fd5b506040805160206004803580820135601f810184900484028501840190955284845261028f94369492936024939284019190819084018382808284375050604080516020601f89358b018035918201839004830284018301909452808352979a99988101979196509182019450925082915084018382808284375050604080516020601f89358b018035918201839004830284018301909452808352979a9998810197919650918201945092508291508401838280828437509497506105d69650505050505050565b005b6000606080600080856040518082805190602001908083835b602083106102c95780518252601f1990920191602091820191016102aa565b51815160209384036101000a600019018019909216911617905292019485525060405193849003019092205473ffffffffffffffffffffffffffffffffffffffff169250505080151561036557604080516020818101835260008083528351808501909452601384527f43726561746520616e20656c656374696f6e2e00000000000000000000000000918401919091529550935091506105ce565b6000856040518082805190602001908083835b602083106103975780518252601f199092019160209182019101610378565b51815160209384036101000a6000190180199092169116179052920194855250604051938490038101842054895173ffffffffffffffffffffffffffffffffffffffff90911694600094508a9350918291908401908083835b6020831061040f5780518252601f1990920191602091820191016103f0565b6001836020036101000a03801982511681845116808217855250505050505090500191505090815260200160405180910390206001016000876040518082805190602001908083835b602083106104775780518252601f199092019160209182019101610458565b518151600019602094850361010090810a820192831692199390931691909117909252949092019687526040805197889003820188208954601f6002600183161590980290950116869004938401839004830289018301909152828852939093019594508693509184019050828280156105325780601f1061050757610100808354040283529160200191610532565b820191906000526020600020905b81548152906001019060200180831161051557829003601f168201915b5050845460408051602060026001851615610100026000190190941693909304601f8101849004840282018401909252818152959750869450925084019050828280156105c05780601f10610595576101008083540402835291602001916105c0565b820191906000526020600020905b8154815290600101906020018083116105a357829003601f168201915b505050505090509350935093505b509193909250565b60003383836105e3610887565b73ffffffffffffffffffffffffffffffffffffffff84168152606060208083018281528551928401929092528451604084019160808501919087019080838360005b8381101561063d578181015183820152602001610625565b50505050905090810190601f16801561066a5780820380516001836020036101000a031916815260200191505b50838103825284518152845160209182019186019080838360005b8381101561069d578181015183820152602001610685565b50505050905090810190601f1680156106ca5780820380516001836020036101000a031916815260200191505b5095505050505050604051809103906000f0801580156106ee573d6000803e3d6000fd5b509050806000856040518082805190602001908083835b602083106107245780518252601f199092019160209182019101610705565b51815160209384036101000a60001901801990921691161790529201948552506040519384900381018420805473ffffffffffffffffffffffffffffffffffffffff191673ffffffffffffffffffffffffffffffffffffffff9690961695909517909455505085518592600092889290918291908401908083835b602083106107be5780518252601f19909201916020918201910161079f565b6001836020036101000a03801982511681845116808217855250505050505090500191505090815260200160405180910390206001019080519060200190610807929190610897565b50816000856040518082805190602001908083835b6020831061083b5780518252601f19909201916020918201910161081c565b51815160209384036101000a60001901801990921691161790529201948552506040519384900381019093208451610880956002909201949190910192509050610897565b5050505050565b6040516111d58061093383390190565b828054600181600116156101000203166002900490600052602060002090601f016020900481019282601f106108d857805160ff1916838001178555610905565b82800160010185558215610905579182015b828111156109055782518255916020019190600101906108ea565b50610911929150610915565b5090565b61092f91905b80821115610911576000815560010161091b565b90560060806040523480156200001157600080fd5b50604051620011d5380380620011d583398101604090815281516020808401519284015160008054600160a060020a031916600160a060020a03851617905592840180519294909301916200006d91600191908501906200009b565b508051620000839060029060208401906200009b565b50506003805460ff1916600117905550620001409050565b828054600181600116156101000203166002900490600052602060002090601f016020900481019282601f10620000de57805160ff19168380011785556200010e565b828001600101855582156200010e579182015b828111156200010e578251825591602001919060010190620000f1565b506200011c92915062000120565b5090565b6200013d91905b808211156200011c576000815560010162000127565b90565b61108580620001506000396000f30060806040526004361061008d5763ffffffff7c010000000000000000000000000000000000000000000000000000000060003504166342b03cc9811461009257806365fc783c146101a75780636d6277f4146101d2578063a15148d1146103a4578063b224c40a146103b9578063cde9370f1461041a578063e8685ba114610435578063ed836bc31461044a575b600080fd5b34801561009e57600080fd5b506040805160206004803580820135601f81018490048402850184019095528484526101a594369492936024939284019190819084018382808284375050604080516020601f89358b018035918201839004830284018301909452808352979a99988101979196509182019450925082915084018382808284375050604080516020601f89358b018035918201839004830284018301909452808352979a99988101979196509182019450925082915084018382808284375050604080516020601f89358b018035918201839004830284018301909452808352979a99988101979196509182019450925082915084018382808284375094975061053d9650505050505050565b005b3480156101b357600080fd5b506101bc61069f565b6040805160ff9092168252519081900360200190f35b3480156101de57600080fd5b506101ed60ff600435166106ae565b604051808060200180602001806020018660ff1660ff1681526020018060200185810385528a818151815260200191508051906020019080838360005b8381101561024257818101518382015260200161022a565b50505050905090810190601f16801561026f5780820380516001836020036101000a031916815260200191505b5085810384528951815289516020918201918b019080838360005b838110156102a257818101518382015260200161028a565b50505050905090810190601f1680156102cf5780820380516001836020036101000a031916815260200191505b5085810383528851815288516020918201918a019080838360005b838110156103025781810151838201526020016102ea565b50505050905090810190601f16801561032f5780820380516001836020036101000a031916815260200191505b50858103825286518152865160209182019188019080838360005b8381101561036257818101518382015260200161034a565b50505050905090810190601f16801561038f5780820380516001836020036101000a031916815260200191505b50995050505050505050505060405180910390f35b3480156103b057600080fd5b506101bc61091a565b3480156103c557600080fd5b5060408051602060046024803582810135601f81018590048502860185019096528585526101a595833560ff16953695604494919390910191908190840183828082843750949750610a3b9650505050505050565b34801561042657600080fd5b506101ed60ff60043516610c0b565b34801561044157600080fd5b506101bc610e8c565b34801561045657600080fd5b5061045f610e95565b604051808060200180602001838103835285818151815260200191508051906020019080838360005b838110156104a0578181015183820152602001610488565b50505050905090810190601f1680156104cd5780820380516001836020036101000a031916815260200191505b50838103825284518152845160209182019186019080838360005b838110156105005781810151838201526020016104e8565b50505050905090810190601f16801561052d5780820380516001836020036101000a031916815260200191505b5094505050505060405180910390f35b6000805473ffffffffffffffffffffffffffffffffffffffff1633146105c457604080517f08c379a000000000000000000000000000000000000000000000000000000000815260206004820152601560248201527f4572726f723a204163636573732044656e6965642e0000000000000000000000604482015290519081900360640190fd5b506006805460ff198116600160ff928316908101909216179091556040805160a0810182528681526020808201879052818301869052600060608301819052608083018690528481526004825292909220815180519293919261062a9284920190610fc1565b5060208281015180516106439260018501920190610fc1565b506040820151805161065f916002840191602090910190610fc1565b50606082015160038201805460ff191660ff90921691909117905560808201518051610695916004840191602090910190610fc1565b5050505050505050565b600654610100900460ff165b90565b60046020908152600091825260409182902080548351601f600260001961010060018616150201909316929092049182018490048402810184019094528084529092918391908301828280156107455780601f1061071a57610100808354040283529160200191610745565b820191906000526020600020905b81548152906001019060200180831161072857829003601f168201915b505050505090806001018054600181600116156101000203166002900480601f0160208091040260200160405190810160405280929190818152602001828054600181600116156101000203166002900480156107e35780601f106107b8576101008083540402835291602001916107e3565b820191906000526020600020905b8154815290600101906020018083116107c657829003601f168201915b50505060028085018054604080516020601f60001961010060018716150201909416959095049283018590048502810185019091528181529596959450909250908301828280156108755780601f1061084a57610100808354040283529160200191610875565b820191906000526020600020905b81548152906001019060200180831161085857829003601f168201915b50505050600383015460048401805460408051602060026101006001861615026000190190941693909304601f8101849004840282018401909252818152959660ff90941695939450908301828280156109105780601f106108e557610100808354040283529160200191610910565b820191906000526020600020905b8154815290600101906020018083116108f357829003601f168201915b5050505050905085565b6000805481908190819073ffffffffffffffffffffffffffffffffffffffff1633146109a757604080517f08c379a000000000000000000000000000000000000000000000000000000000815260206004820152601560248201527f4572726f723a204163636573732044656e6965642e0000000000000000000000604482015290519081900360640190fd5b506000805260046020527f17ef568e3e12ab5b9c7254a8d58478811de00f9e6eb34345acd53bf8fd09d3ef5460ff16915060015b60065460ff9081169082161015610a345760ff80821660009081526004602052604090206003015481169084161015610a2c5760ff8082166000908152600460205260409020600301541692509050805b6001016109db565b5092915050565b6005816040518082805190602001908083835b60208310610a6d5780518252601f199092019160209182019101610a4e565b518151600019602094850361010090810a91909101918216911992909216179091529390910195865260405195869003019094205460ff91900416159250610b1991505057604080517f08c379a000000000000000000000000000000000000000000000000000000000815260206004820152601c60248201527f4572726f723a596f752063616e6e6f7420646f75626c6520766f746500000000604482015290519081900360640190fd5b60408051908101604052808360ff168152602001600115158152506005826040518082805190602001908083835b60208310610b665780518252601f199092019160209182019101610b47565b518151600019602094850361010090810a9190910191821691199290921617909152939091019586526040805196879003820190962087518154988301511515850261ff001960ff92831660ff199b8c1617811691909117909255600680548681048316600190810184169097029316929092179091559889166000908152600490915294909420600301805480891690920190971694169390931790945550505050565b60ff8082166000908152600460208181526040808420600381015481548351601f600260001960018581161561010002919091019094168190049182018890048802830188019096528082526060998a998a9990988a98958801969588019590921693908701929091879190830182828015610cc85780601f10610c9d57610100808354040283529160200191610cc8565b820191906000526020600020905b815481529060010190602001808311610cab57829003601f168201915b5050875460408051602060026001851615610100026000190190941693909304601f8101849004840282018401909252818152959a5089945092508401905082828015610d565780601f10610d2b57610100808354040283529160200191610d56565b820191906000526020600020905b815481529060010190602001808311610d3957829003601f168201915b5050865460408051602060026001851615610100026000190190941693909304601f810184900484028201840190925281815295995088945092508401905082828015610de45780601f10610db957610100808354040283529160200191610de4565b820191906000526020600020905b815481529060010190602001808311610dc757829003601f168201915b5050845460408051602060026001851615610100026000190190941693909304601f810184900484028201840190925281815295985086945092508401905082828015610e725780601f10610e4757610100808354040283529160200191610e72565b820191906000526020600020905b815481529060010190602001808311610e5557829003601f168201915b505050505090509450945094509450945091939590929450565b60065460ff1690565b600180546040805160206002848616156101000260001901909416849004601f810182900482028301820190935282825260609485949093909291849190830182828015610f245780601f10610ef957610100808354040283529160200191610f24565b820191906000526020600020905b815481529060010190602001808311610f0757829003601f168201915b5050845460408051602060026001851615610100026000190190941693909304601f810184900484028201840190925281815295975086945092508401905082828015610fb25780601f10610f8757610100808354040283529160200191610fb2565b820191906000526020600020905b815481529060010190602001808311610f9557829003601f168201915b50505050509050915091509091565b828054600181600116156101000203166002900490600052602060002090601f016020900481019282601f1061100257805160ff191683800117855561102f565b8280016001018555821561102f579182015b8281111561102f578251825591602001919060010190611014565b5061103b92915061103f565b5090565b6106ab91905b8082111561103b57600081556001016110455600a165627a7a7230582015ff5c217a2170efde7e7f9f588941e0cca97877972e5bded2f5673a8622090b0029a165627a7a72305820736627353641ef825c360198f7c749cfd774d34f25e7ac51f12e2e60ae4cf88d0029",
    "sourcePath": "c:/Users/Hussain/Downloads/BlockChainVoting-master/BlockChainVoting-master/Ethereum/Contract/Election.sol",
    "compiler": {
        "name": "solc",
        "version": "0.4.25+commit.59dbf8f1"
    },
    "functionHashes": {
        "createElection(string,string,string)": "4a6cf3a9",
        "getDeployedElection(string)": "37f46549"
    },
    "gasEstimates": {
        "creation": {
            "codeDepositCost": "1392600",
            "executionCost": "1451",
            "totalCost": "1394051"
        },
        "external": {
            "createElection(string,string,string)": "infinite",
            "getDeployedElection(string)": "infinite"
        }
    }
}