{
    "contractName": "Election",
    "abi": [
        {
            "constant": false,
            "inputs": [
                {
                    "name": "candidate_name",
                    "type": "string"
                },
                {
                    "name": "candidate_description",
                    "type": "string"
                },
                {
                    "name": "imgHash",
                    "type": "string"
                },
                {
                    "name": "email",
                    "type": "string"
                }
            ],
            "name": "addCandidate",
            "outputs": [],
            "payable": false,
            "stateMutability": "nonpayable",
            "type": "function"
        },
        {
            "constant": true,
            "inputs": [],
            "name": "getNumOfVoters",
            "outputs": [
                {
                    "name": "",
                    "type": "uint8"
                }
            ],
            "payable": false,
            "stateMutability": "view",
            "type": "function"
        },
        {
            "constant": true,
            "inputs": [
                {
                    "name": "",
                    "type": "uint8"
                }
            ],
            "name": "candidates",
            "outputs": [
                {
                    "name": "candidate_name",
                    "type": "string"
                },
                {
                    "name": "candidate_description",
                    "type": "string"
                },
                {
                    "name": "imgHash",
                    "type": "string"
                },
                {
                    "name": "voteCount",
                    "type": "uint8"
                },
                {
                    "name": "email",
                    "type": "string"
                }
            ],
            "payable": false,
            "stateMutability": "view",
            "type": "function"
        },
        {
            "constant": true,
            "inputs": [],
            "name": "winnerCandidate",
            "outputs": [
                {
                    "name": "",
                    "type": "uint8"
                }
            ],
            "payable": false,
            "stateMutability": "view",
            "type": "function"
        },
        {
            "constant": false,
            "inputs": [
                {
                    "name": "candidateID",
                    "type": "uint8"
                },
                {
                    "name": "e",
                    "type": "string"
                }
            ],
            "name": "vote",
            "outputs": [],
            "payable": false,
            "stateMutability": "nonpayable",
            "type": "function"
        },
        {
            "constant": true,
            "inputs": [
                {
                    "name": "candidateID",
                    "type": "uint8"
                }
            ],
            "name": "getCandidate",
            "outputs": [
                {
                    "name": "",
                    "type": "string"
                },
                {
                    "name": "",
                    "type": "string"
                },
                {
                    "name": "",
                    "type": "string"
                },
                {
                    "name": "",
                    "type": "uint8"
                },
                {
                    "name": "",
                    "type": "string"
                }
            ],
            "payable": false,
            "stateMutability": "view",
            "type": "function"
        },
        {
            "constant": true,
            "inputs": [],
            "name": "getNumOfCandidates",
            "outputs": [
                {
                    "name": "",
                    "type": "uint8"
                }
            ],
            "payable": false,
            "stateMutability": "view",
            "type": "function"
        },
        {
            "constant": true,
            "inputs": [],
            "name": "getElectionDetails",
            "outputs": [
                {
                    "name": "",
                    "type": "string"
                },
                {
                    "name": "",
                    "type": "string"
                },
                {
                    "name": "",
                    "type": "address"
                }
            ],
            "payable": false,
            "stateMutability": "view",
            "type": "function"
        },
        {
            "inputs": [
                {
                    "name": "authority",
                    "type": "address"
                },
                {
                    "name": "name",
                    "type": "string"
                },
                {
                    "name": "description",
                    "type": "string"
                }
            ],
            "payable": false,
            "stateMutability": "nonpayable",
            "type": "constructor"
        }
    ],
    "bytecode": "60806040523480156200001157600080fd5b50604051620012283803806200122883398101604090815281516020808401519284015160008054600160a060020a031916600160a060020a03851617905592840180519294909301916200006d91600191908501906200009b565b508051620000839060029060208401906200009b565b50506003805460ff1916600117905550620001409050565b828054600181600116156101000203166002900490600052602060002090601f016020900481019282601f10620000de57805160ff19168380011785556200010e565b828001600101855582156200010e579182015b828111156200010e578251825591602001919060010190620000f1565b506200011c92915062000120565b5090565b6200013d91905b808211156200011c576000815560010162000127565b90565b6110d880620001506000396000f30060806040526004361061008d5763ffffffff7c010000000000000000000000000000000000000000000000000000000060003504166342b03cc9811461009257806365fc783c146101a75780636d6277f4146101d2578063a15148d1146103a4578063b224c40a146103b9578063cde9370f1461041a578063e8685ba114610435578063ed836bc31461044a575b600080fd5b34801561009e57600080fd5b506040805160206004803580820135601f81018490048402850184019095528484526101a594369492936024939284019190819084018382808284375050604080516020601f89358b018035918201839004830284018301909452808352979a99988101979196509182019450925082915084018382808284375050604080516020601f89358b018035918201839004830284018301909452808352979a99988101979196509182019450925082915084018382808284375050604080516020601f89358b018035918201839004830284018301909452808352979a9998810197919650918201945092508291508401838280828437509497506105709650505050505050565b005b3480156101b357600080fd5b506101bc6106d2565b6040805160ff9092168252519081900360200190f35b3480156101de57600080fd5b506101ed60ff600435166106e1565b604051808060200180602001806020018660ff1660ff1681526020018060200185810385528a818151815260200191508051906020019080838360005b8381101561024257818101518382015260200161022a565b50505050905090810190601f16801561026f5780820380516001836020036101000a031916815260200191505b5085810384528951815289516020918201918b019080838360005b838110156102a257818101518382015260200161028a565b50505050905090810190601f1680156102cf5780820380516001836020036101000a031916815260200191505b5085810383528851815288516020918201918a019080838360005b838110156103025781810151838201526020016102ea565b50505050905090810190601f16801561032f5780820380516001836020036101000a031916815260200191505b50858103825286518152865160209182019188019080838360005b8381101561036257818101518382015260200161034a565b50505050905090810190601f16801561038f5780820380516001836020036101000a031916815260200191505b50995050505050505050505060405180910390f35b3480156103b057600080fd5b506101bc61094d565b3480156103c557600080fd5b5060408051602060046024803582810135601f81018590048502860185019096528585526101a595833560ff16953695604494919390910191908190840183828082843750949750610a6e9650505050505050565b34801561042657600080fd5b506101ed60ff60043516610c3e565b34801561044157600080fd5b506101bc610ebf565b34801561045657600080fd5b5061045f610ec8565b6040518080602001806020018473ffffffffffffffffffffffffffffffffffffffff1673ffffffffffffffffffffffffffffffffffffffff168152602001838103835286818151815260200191508051906020019080838360005b838110156104d25781810151838201526020016104ba565b50505050905090810190601f1680156104ff5780820380516001836020036101000a031916815260200191505b50838103825285518152855160209182019187019080838360005b8381101561053257818101518382015260200161051a565b50505050905090810190601f16801561055f5780820380516001836020036101000a031916815260200191505b509550505050505060405180910390f35b6000805473ffffffffffffffffffffffffffffffffffffffff1633146105f757604080517f08c379a000000000000000000000000000000000000000000000000000000000815260206004820152601560248201527f4572726f723a204163636573732044656e6965642e0000000000000000000000604482015290519081900360640190fd5b506006805460ff198116600160ff928316908101909216179091556040805160a0810182528681526020808201879052818301869052600060608301819052608083018690528481526004825292909220815180519293919261065d9284920190611014565b5060208281015180516106769260018501920190611014565b5060408201518051610692916002840191602090910190611014565b50606082015160038201805460ff191660ff909216919091179055608082015180516106c8916004840191602090910190611014565b5050505050505050565b600654610100900460ff165b90565b60046020908152600091825260409182902080548351601f600260001961010060018616150201909316929092049182018490048402810184019094528084529092918391908301828280156107785780601f1061074d57610100808354040283529160200191610778565b820191906000526020600020905b81548152906001019060200180831161075b57829003601f168201915b505050505090806001018054600181600116156101000203166002900480601f0160208091040260200160405190810160405280929190818152602001828054600181600116156101000203166002900480156108165780601f106107eb57610100808354040283529160200191610816565b820191906000526020600020905b8154815290600101906020018083116107f957829003601f168201915b50505060028085018054604080516020601f60001961010060018716150201909416959095049283018590048502810185019091528181529596959450909250908301828280156108a85780601f1061087d576101008083540402835291602001916108a8565b820191906000526020600020905b81548152906001019060200180831161088b57829003601f168201915b50505050600383015460048401805460408051602060026101006001861615026000190190941693909304601f8101849004840282018401909252818152959660ff90941695939450908301828280156109435780601f1061091857610100808354040283529160200191610943565b820191906000526020600020905b81548152906001019060200180831161092657829003601f168201915b5050505050905085565b6000805481908190819073ffffffffffffffffffffffffffffffffffffffff1633146109da57604080517f08c379a000000000000000000000000000000000000000000000000000000000815260206004820152601560248201527f4572726f723a204163636573732044656e6965642e0000000000000000000000604482015290519081900360640190fd5b506000805260046020527f17ef568e3e12ab5b9c7254a8d58478811de00f9e6eb34345acd53bf8fd09d3ef5460ff16915060015b60065460ff9081169082161015610a675760ff80821660009081526004602052604090206003015481169084161015610a5f5760ff8082166000908152600460205260409020600301541692509050805b600101610a0e565b5092915050565b6005816040518082805190602001908083835b60208310610aa05780518252601f199092019160209182019101610a81565b518151600019602094850361010090810a91909101918216911992909216179091529390910195865260405195869003019094205460ff91900416159250610b4c91505057604080517f08c379a000000000000000000000000000000000000000000000000000000000815260206004820152601c60248201527f4572726f723a596f752063616e6e6f7420646f75626c6520766f746500000000604482015290519081900360640190fd5b60408051908101604052808360ff168152602001600115158152506005826040518082805190602001908083835b60208310610b995780518252601f199092019160209182019101610b7a565b518151600019602094850361010090810a9190910191821691199290921617909152939091019586526040805196879003820190962087518154988301511515850261ff001960ff92831660ff199b8c1617811691909117909255600680548681048316600190810184169097029316929092179091559889166000908152600490915294909420600301805480891690920190971694169390931790945550505050565b60ff8082166000908152600460208181526040808420600381015481548351601f600260001960018581161561010002919091019094168190049182018890048802830188019096528082526060998a998a9990988a98958801969588019590921693908701929091879190830182828015610cfb5780601f10610cd057610100808354040283529160200191610cfb565b820191906000526020600020905b815481529060010190602001808311610cde57829003601f168201915b5050875460408051602060026001851615610100026000190190941693909304601f8101849004840282018401909252818152959a5089945092508401905082828015610d895780601f10610d5e57610100808354040283529160200191610d89565b820191906000526020600020905b815481529060010190602001808311610d6c57829003601f168201915b5050865460408051602060026001851615610100026000190190941693909304601f810184900484028201840190925281815295995088945092508401905082828015610e175780601f10610dec57610100808354040283529160200191610e17565b820191906000526020600020905b815481529060010190602001808311610dfa57829003601f168201915b5050845460408051602060026001851615610100026000190190941693909304601f810184900484028201840190925281815295985086945092508401905082828015610ea55780601f10610e7a57610100808354040283529160200191610ea5565b820191906000526020600020905b815481529060010190602001808311610e8857829003601f168201915b505050505090509450945094509450945091939590929450565b60065460ff1690565b60008054600180546040805160206002610100858716150260001901909416849004601f810182900482028301820190935282825260609687969095949373ffffffffffffffffffffffffffffffffffffffff9091169291859190830182828015610f745780601f10610f4957610100808354040283529160200191610f74565b820191906000526020600020905b815481529060010190602001808311610f5757829003601f168201915b5050855460408051602060026001851615610100026000190190941693909304601f8101849004840282018401909252818152959850879450925084019050828280156110025780601f10610fd757610100808354040283529160200191611002565b820191906000526020600020905b815481529060010190602001808311610fe557829003601f168201915b50505050509150925092509250909192565b828054600181600116156101000203166002900490600052602060002090601f016020900481019282601f1061105557805160ff1916838001178555611082565b82800160010185558215611082579182015b82811115611082578251825591602001919060010190611067565b5061108e929150611092565b5090565b6106de91905b8082111561108e57600081556001016110985600a165627a7a72305820c020674da588097f501f0adf51e47aafd4d398c20cb19d6ffc6bcf6b2c2912f10029",
    "sourcePath": "c:/Users/Hussain/Downloads/BlockChainVoting-master/BlockChainVoting-master/Ethereum/Contract/Election.sol",
    "compiler": {
        "name": "solc",
        "version": "0.4.25+commit.59dbf8f1"
    },
    "functionHashes": {
        "addCandidate(string,string,string,string)": "42b03cc9",
        "candidates(uint8)": "6d6277f4",
        "getCandidate(uint8)": "cde9370f",
        "getElectionDetails()": "ed836bc3",
        "getNumOfCandidates()": "e8685ba1",
        "getNumOfVoters()": "65fc783c",
        "vote(uint8,string)": "b224c40a",
        "winnerCandidate()": "a15148d1"
    },
    "gasEstimates": {
        "creation": {
            "codeDepositCost": "862400",
            "executionCost": "infinite",
            "totalCost": "infinite"
        },
        "external": {
            "addCandidate(string,string,string,string)": "infinite",
            "candidates(uint8)": "infinite",
            "getCandidate(uint8)": "infinite",
            "getElectionDetails()": "infinite",
            "getNumOfCandidates()": "531",
            "getNumOfVoters()": "433",
            "vote(uint8,string)": "infinite",
            "winnerCandidate()": "infinite"
        }
    }
}