{
  "contractName": "Election",
  "abi": [
    {
      "constant": true,
      "inputs": [
        {
          "name": "",
          "type": "uint8"
        }
      ],
      "name": "candidates",
      "outputs": [
        {
          "name": "candidate_name",
          "type": "string"
        },
        {
          "name": "candidate_description",
          "type": "string"
        },
        {
          "name": "imgHash",
          "type": "string"
        },
        {
          "name": "voteCount",
          "type": "uint8"
        },
        {
          "name": "email",
          "type": "string"
        }
      ],
      "payable": false,
      "stateMutability": "view",
      "type": "function"
    },
    {
      "inputs": [
        {
          "name": "authority",
          "type": "address"
        },
        {
          "name": "name",
          "type": "string"
        },
        {
          "name": "description",
          "type": "string"
        }
      ],
      "payable": false,
      "stateMutability": "nonpayable",
      "type": "constructor"
    },
    {
      "constant": false,
      "inputs": [
        {
          "name": "candidate_name",
          "type": "string"
        },
        {
          "name": "candidate_description",
          "type": "string"
        },
        {
          "name": "imgHash",
          "type": "string"
        },
        {
          "name": "email",
          "type": "string"
        }
      ],
      "name": "addCandidate",
      "outputs": [],
      "payable": false,
      "stateMutability": "nonpayable",
      "type": "function"
    },
    {
      "constant": false,
      "inputs": [
        {
          "name": "candidateID",
          "type": "uint8"
        },
        {
          "name": "e",
          "type": "string"
        }
      ],
      "name": "vote",
      "outputs": [],
      "payable": false,
      "stateMutability": "nonpayable",
      "type": "function"
    },
    {
      "constant": true,
      "inputs": [],
      "name": "getNumOfCandidates",
      "outputs": [
        {
          "name": "",
          "type": "uint8"
        }
      ],
      "payable": false,
      "stateMutability": "view",
      "type": "function"
    },
    {
      "constant": true,
      "inputs": [],
      "name": "getNumOfVoters",
      "outputs": [
        {
          "name": "",
          "type": "uint8"
        }
      ],
      "payable": false,
      "stateMutability": "view",
      "type": "function"
    },
    {
      "constant": true,
      "inputs": [
        {
          "name": "candidateID",
          "type": "uint8"
        }
      ],
      "name": "getCandidate",
      "outputs": [
        {
          "name": "",
          "type": "string"
        },
        {
          "name": "",
          "type": "string"
        },
        {
          "name": "",
          "type": "string"
        },
        {
          "name": "",
          "type": "uint8"
        },
        {
          "name": "",
          "type": "string"
        }
      ],
      "payable": false,
      "stateMutability": "view",
      "type": "function"
    },
    {
      "constant": true,
      "inputs": [],
      "name": "winnerCandidate",
      "outputs": [
        {
          "name": "",
          "type": "uint8"
        }
      ],
      "payable": false,
      "stateMutability": "view",
      "type": "function"
    },
    {
      "constant": true,
      "inputs": [],
      "name": "getElectionDetails",
      "outputs": [
        {
          "name": "",
          "type": "string"
        },
        {
          "name": "",
          "type": "string"
        },
        {
          "name": "",
          "type": "address"
        }
      ],
      "payable": false,
      "stateMutability": "view",
      "type": "function"
    }
  ],
  "bytecode": "0x60806040523480156200001157600080fd5b506040516200177b3803806200177b833981018060405281019080805190602001909291908051820192919060200180518201929190505050826000806101000a81548173ffffffffffffffffffffffffffffffffffffffff021916908373ffffffffffffffffffffffffffffffffffffffff1602179055508160019080519060200190620000a2929190620000e0565b508060029080519060200190620000bb929190620000e0565b506001600360006101000a81548160ff0219169083151502179055505050506200018f565b828054600181600116156101000203166002900490600052602060002090601f016020900481019282601f106200012357805160ff191683800117855562000154565b8280016001018555821562000154579182015b828111156200015357825182559160200191906001019062000136565b5b50905062000163919062000167565b5090565b6200018c91905b80821115620001885760008160009055506001016200016e565b5090565b90565b6115dc806200019f6000396000f30060806040526004361061008e576000357c0100000000000000000000000000000000000000000000000000000000900463ffffffff16806342b03cc91461009357806365fc783c146101ce5780636d6277f4146101ff578063a15148d1146103f9578063b224c40a1461042a578063cde9370f146104a0578063e8685ba11461069a578063ed836bc3146106cb575b600080fd5b34801561009f57600080fd5b506101cc600480360381019080803590602001908201803590602001908080601f0160208091040260200160405190810160405280939291908181526020018383808284378201915050505050509192919290803590602001908201803590602001908080601f0160208091040260200160405190810160405280939291908181526020018383808284378201915050505050509192919290803590602001908201803590602001908080601f0160208091040260200160405190810160405280939291908181526020018383808284378201915050505050509192919290803590602001908201803590602001908080601f01602080910402602001604051908101604052809392919081815260200183838082843782019150505050505091929192905050506107fa565b005b3480156101da57600080fd5b506101e36109d7565b604051808260ff1660ff16815260200191505060405180910390f35b34801561020b57600080fd5b5061022d600480360381019080803560ff1690602001909291905050506109ee565b604051808060200180602001806020018660ff1660ff1681526020018060200185810385528a818151815260200191508051906020019080838360005b8381101561028557808201518184015260208101905061026a565b50505050905090810190601f1680156102b25780820380516001836020036101000a031916815260200191505b50858103845289818151815260200191508051906020019080838360005b838110156102eb5780820151818401526020810190506102d0565b50505050905090810190601f1680156103185780820380516001836020036101000a031916815260200191505b50858103835288818151815260200191508051906020019080838360005b83811015610351578082015181840152602081019050610336565b50505050905090810190601f16801561037e5780820380516001836020036101000a031916815260200191505b50858103825286818151815260200191508051906020019080838360005b838110156103b757808201518184015260208101905061039c565b50505050905090810190601f1680156103e45780820380516001836020036101000a031916815260200191505b50995050505050505050505060405180910390f35b34801561040557600080fd5b5061040e610c91565b604051808260ff1660ff16815260200191505060405180910390f35b34801561043657600080fd5b5061049e600480360381019080803560ff169060200190929190803590602001908201803590602001908080601f0160208091040260200160405190810160405280939291908181526020018383808284378201915050505050509192919290505050610e23565b005b3480156104ac57600080fd5b506104ce600480360381019080803560ff169060200190929190505050611060565b604051808060200180602001806020018660ff1660ff1681526020018060200185810385528a818151815260200191508051906020019080838360005b8381101561052657808201518184015260208101905061050b565b50505050905090810190601f1680156105535780820380516001836020036101000a031916815260200191505b50858103845289818151815260200191508051906020019080838360005b8381101561058c578082015181840152602081019050610571565b50505050905090810190601f1680156105b95780820380516001836020036101000a031916815260200191505b50858103835288818151815260200191508051906020019080838360005b838110156105f25780820151818401526020810190506105d7565b50505050905090810190601f16801561061f5780820380516001836020036101000a031916815260200191505b50858103825286818151815260200191508051906020019080838360005b8381101561065857808201518184015260208101905061063d565b50505050905090810190601f1680156106855780820380516001836020036101000a031916815260200191505b50995050505050505050505060405180910390f35b3480156106a657600080fd5b506106af611386565b604051808260ff1660ff16815260200191505060405180910390f35b3480156106d757600080fd5b506106e061139d565b6040518080602001806020018473ffffffffffffffffffffffffffffffffffffffff1673ffffffffffffffffffffffffffffffffffffffff168152602001838103835286818151815260200191508051906020019080838360005b8381101561075657808201518184015260208101905061073b565b50505050905090810190601f1680156107835780820380516001836020036101000a031916815260200191505b50838103825285818151815260200191508051906020019080838360005b838110156107bc5780820151818401526020810190506107a1565b50505050905090810190601f1680156107e95780820380516001836020036101000a031916815260200191505b509550505050505060405180910390f35b60008060009054906101000a900473ffffffffffffffffffffffffffffffffffffffff1673ffffffffffffffffffffffffffffffffffffffff163373ffffffffffffffffffffffffffffffffffffffff161415156108c0576040517f08c379a00000000000000000000000000000000000000000000000000000000081526004018080602001828103825260158152602001807f4572726f723a204163636573732044656e6965642e000000000000000000000081525060200191505060405180910390fd5b6006600081819054906101000a900460ff168092919060010191906101000a81548160ff021916908360ff160217905550905060a060405190810160405280868152602001858152602001848152602001600060ff16815260200183815250600460008360ff1660ff168152602001908152602001600020600082015181600001908051906020019061095492919061150b565b50602082015181600101908051906020019061097192919061150b565b50604082015181600201908051906020019061098e92919061150b565b5060608201518160030160006101000a81548160ff021916908360ff16021790555060808201518160040190805190602001906109cc92919061150b565b509050505050505050565b6000600660019054906101000a900460ff16905090565b6004602052806000526040600020600091509050806000018054600181600116156101000203166002900480601f016020809104026020016040519081016040528092919081815260200182805460018160011615610100020316600290048015610a9a5780601f10610a6f57610100808354040283529160200191610a9a565b820191906000526020600020905b815481529060010190602001808311610a7d57829003601f168201915b505050505090806001018054600181600116156101000203166002900480601f016020809104026020016040519081016040528092919081815260200182805460018160011615610100020316600290048015610b385780601f10610b0d57610100808354040283529160200191610b38565b820191906000526020600020905b815481529060010190602001808311610b1b57829003601f168201915b505050505090806002018054600181600116156101000203166002900480601f016020809104026020016040519081016040528092919081815260200182805460018160011615610100020316600290048015610bd65780601f10610bab57610100808354040283529160200191610bd6565b820191906000526020600020905b815481529060010190602001808311610bb957829003601f168201915b5050505050908060030160009054906101000a900460ff1690806004018054600181600116156101000203166002900480601f016020809104026020016040519081016040528092919081815260200182805460018160011615610100020316600290048015610c875780601f10610c5c57610100808354040283529160200191610c87565b820191906000526020600020905b815481529060010190602001808311610c6a57829003601f168201915b5050505050905085565b6000806000806000809054906101000a900473ffffffffffffffffffffffffffffffffffffffff1673ffffffffffffffffffffffffffffffffffffffff163373ffffffffffffffffffffffffffffffffffffffff16141515610d5b576040517f08c379a00000000000000000000000000000000000000000000000000000000081526004018080602001828103825260158152602001807f4572726f723a204163636573732044656e6965642e000000000000000000000081525060200191505060405180910390fd5b600460008060ff16815260200190815260200160002060030160009054906101000a900460ff169250600190505b600660009054906101000a900460ff1660ff168160ff161015610e1a57600460008260ff1660ff16815260200190815260200160002060030160009054906101000a900460ff1660ff168360ff161015610e0d57600460008260ff1660ff16815260200190815260200160002060030160009054906101000a900460ff1692508091505b8080600101915050610d89565b81935050505090565b6005816040518082805190602001908083835b602083101515610e5b5780518252602082019150602081019050602083039250610e36565b6001836020036101000a038019825116818451168082178552505050505050905001915050908152602001604051809103902060000160019054906101000a900460ff16151515610f14576040517f08c379a000000000000000000000000000000000000000000000000000000000815260040180806020018281038252601c8152602001807f4572726f723a596f752063616e6e6f7420646f75626c6520766f74650000000081525060200191505060405180910390fd5b60408051908101604052808360ff168152602001600115158152506005826040518082805190602001908083835b602083101515610f675780518252602082019150602081019050602083039250610f42565b6001836020036101000a038019825116818451168082178552505050505050905001915050908152602001604051809103902060008201518160000160006101000a81548160ff021916908360ff16021790555060208201518160000160016101000a81548160ff0219169083151502179055509050506006600181819054906101000a900460ff168092919060010191906101000a81548160ff021916908360ff16021790555050600460008360ff1660ff168152602001908152602001600020600301600081819054906101000a900460ff168092919060010191906101000a81548160ff021916908360ff160217905550505050565b606080606060006060600460008760ff1660ff168152602001908152602001600020600001600460008860ff1660ff168152602001908152602001600020600101600460008960ff1660ff168152602001908152602001600020600201600460008a60ff1660ff16815260200190815260200160002060030160009054906101000a900460ff16600460008b60ff1660ff168152602001908152602001600020600401848054600181600116156101000203166002900480601f0160208091040260200160405190810160405280929190818152602001828054600181600116156101000203166002900480156111985780601f1061116d57610100808354040283529160200191611198565b820191906000526020600020905b81548152906001019060200180831161117b57829003601f168201915b50505050509450838054600181600116156101000203166002900480601f0160208091040260200160405190810160405280929190818152602001828054600181600116156101000203166002900480156112345780601f1061120957610100808354040283529160200191611234565b820191906000526020600020905b81548152906001019060200180831161121757829003601f168201915b50505050509350828054600181600116156101000203166002900480601f0160208091040260200160405190810160405280929190818152602001828054600181600116156101000203166002900480156112d05780601f106112a5576101008083540402835291602001916112d0565b820191906000526020600020905b8154815290600101906020018083116112b357829003601f168201915b50505050509250808054600181600116156101000203166002900480601f01602080910402602001604051908101604052809291908181526020018280546001816001161561010002031660029004801561136c5780601f106113415761010080835404028352916020019161136c565b820191906000526020600020905b81548152906001019060200180831161134f57829003601f168201915b505050505090509450945094509450945091939590929450565b6000600660009054906101000a900460ff16905090565b6060806000600160026000809054906101000a900473ffffffffffffffffffffffffffffffffffffffff16828054600181600116156101000203166002900480601f01602080910402602001604051908101604052809291908181526020018280546001816001161561010002031660029004801561145d5780601f106114325761010080835404028352916020019161145d565b820191906000526020600020905b81548152906001019060200180831161144057829003601f168201915b50505050509250818054600181600116156101000203166002900480601f0160208091040260200160405190810160405280929190818152602001828054600181600116156101000203166002900480156114f95780601f106114ce576101008083540402835291602001916114f9565b820191906000526020600020905b8154815290600101906020018083116114dc57829003601f168201915b50505050509150925092509250909192565b828054600181600116156101000203166002900490600052602060002090601f016020900481019282601f1061154c57805160ff191683800117855561157a565b8280016001018555821561157a579182015b8281111561157957825182559160200191906001019061155e565b5b509050611587919061158b565b5090565b6115ad91905b808211156115a9576000816000905550600101611591565b5090565b905600a165627a7a723058200d3d351910bcc1e8dbdbf36a03027d1a65a30413d42be44985a82af6ee1a71330029",
  "source": "pragma solidity ^0.4.25;\ncontract ElectionFact {\n        \n    struct ElectionDet {\n        address deployedAddress;\n        string el_n;\n        string el_d;\n    }\n    \n    mapping(string=>ElectionDet) companyEmail;\n    \n    function createElection(string memory email,string memory election_name, string memory election_description) public{\n        address newElection = new Election(msg.sender , election_name, election_description);\n        \n        companyEmail[email].deployedAddress = newElection;\n        companyEmail[email].el_n = election_name;\n        companyEmail[email].el_d = election_description;\n    }\n    \n    function getDeployedElection(string memory email) public view returns (address,string,string) {\n        address val =  companyEmail[email].deployedAddress;\n        if(val == 0) \n            return (0,\"\",\"Create an election.\");\n        else\n            return (companyEmail[email].deployedAddress,companyEmail[email].el_n,companyEmail[email].el_d);\n    }\n}\n\ncontract Election {\n\n    //election_authority's address\n    address election_authority;\n    string election_name;\n    string election_description;\n    bool status;\n    \n    //election_authority's address taken when it deploys the contract\n    constructor(address authority , string name, string description) public {\n        election_authority = authority;\n        election_name = name;\n        election_description = description;\n        status = true;\n    }\n\n    //Only election_authority can call this function\n    modifier owner() {\n        require(msg.sender == election_authority, \"Error: Access Denied.\");\n        _;\n    }\n    //candidate election_description\n\n    struct Candidate {\n        string candidate_name;\n        string candidate_description;\n        string imgHash;\n        uint8 voteCount;\n        string email;\n    }\n\n    //candidate mapping\n\n    mapping(uint8=>Candidate) public candidates;\n\n    //voter election_description\n\n    struct Voter {\n        uint8 candidate_id_voted;\n        bool voted;\n    }\n\n    //voter mapping\n\n    mapping(string=>Voter) voters;\n    \n\n    //counter of number of candidates\n\n    uint8 numCandidates;\n\n    //counter of number of voters\n\n    uint8 numVoters;\n\n    //function to add candidate to mapping\n\n    function addCandidate(string memory candidate_name, string memory candidate_description, string memory imgHash,string memory email) public owner {\n        uint8 candidateID = numCandidates++; //assign id of the candidate\n        candidates[candidateID] = Candidate(candidate_name,candidate_description,imgHash,0,email); //add the values to the mapping\n    }\n    //function to vote and check for double voting\n\n    function vote(uint8 candidateID,string e) public {\n\n        //if false the vote will be registered\n        require(!voters[e].voted, \"Error:You cannot double vote\");\n        \n        voters[e] = Voter (candidateID,true); //add the values to the mapping\n        numVoters++;\n        candidates[candidateID].voteCount++; //increment vote counter of candidate\n        \n    }\n\n    //function to get count of candidates\n\n    function getNumOfCandidates() public view returns(uint8) {\n        return numCandidates;\n    }\n\n    //function to get count of voters\n\n    function getNumOfVoters() public view returns(uint8) {\n        return numVoters;\n    }\n\n    //function to get candidate information\n\n    function getCandidate(uint8 candidateID) public view returns (string memory, string memory, string memory, uint8,string memory) {\n        return (candidates[candidateID].candidate_name, candidates[candidateID].candidate_description, candidates[candidateID].imgHash, candidates[candidateID].voteCount, candidates[candidateID].email);\n    } \n\n    //function to return winner candidate information\n\n    function winnerCandidate() public view owner returns (uint8) {\n        uint8 largestVotes = candidates[0].voteCount;\n        uint8 candidateID;\n        for(uint8 i = 1;i<numCandidates;i++) {\n            if(largestVotes < candidates[i].voteCount) {\n                largestVotes = candidates[i].voteCount;\n                candidateID = i;\n            }\n        }\n        return (candidateID);\n    }\n    \n    function getElectionDetails() public view returns(string, string,address) {\n        return (election_name,election_description,election_authority);    \n    }\n}\n\n\n//Updated\n\n// pragma solidity ^0.4.25;\n// contract ElectionFact {\n    \n//     struct ElectionDet {\n//         address deployedAddress;\n//         string el_n;\n//         string el_d;\n//     }\n    \n//     mapping(string=>ElectionDet) companyEmail;\n    \n//     function createElection(string memory email,string memory election_name, string memory election_description) public{\n//         address newElection = new Election(msg.sender , election_name, election_description);\n        \n//         // companyEmail[email].deployedAddress = 0x3D04F08f33314524Fd315c829d90b6799Bd3a6E3;\n//         companyEmail[email].deployedAddress = newElection;\n//         companyEmail[email].el_n = election_name;\n//         companyEmail[email].el_d = election_description;\n//     }\n    \n//     function getDeployedElection(string memory email) public view returns (address,string,string) {\n//         address val =  companyEmail[email].deployedAddress;\n//         if(val == 0) \n//             return (0,\"\",\"Create an election.\");\n//         else\n//             return (companyEmail[email].deployedAddress,companyEmail[email].el_n,companyEmail[email].el_d);\n//     }\n// }\n\n// contract Election {\n\n//     //election_authority's address\n//     address election_authority;\n//     string election_name;\n//     string election_description;\n//     bool status;\n    \n//     //election_authority's address taken when it deploys the contract\n//     constructor(address authority , string name, string description) public {\n//     // constructor( string name, string description) public {\n//         election_authority = authority;\n//         // election_authority = 0x3D04F08f33314524Fd315c829d90b6799Bd3a6E3;\n//         election_name = name;\n//         election_description = description;\n//         status = true;\n//     }\n\n//     //Only election_authority can call this function\n//     modifier owner() {\n//         require(msg.sender == election_authority, \"Error: Access Denied.\");\n//         _;\n//     }\n//     //candidate election_description\n\n//     struct Candidate {\n//         string candidate_name;\n//         string candidate_description;\n//         string imgHash;\n//         uint8 voteCount;\n//         string email;\n//     }\n\n//     //candidate mapping\n\n//     mapping(uint8=>Candidate) public candidates;\n\n//     //voter election_description\n\n//     struct Voter {\n//         uint8 candidate_id_voted;\n//         bool voted;\n//     }\n\n//     struct VoterHash{\n//         string hash;\n//     }\n\n//     //voter mapping\n\n//     mapping(string=>Voter) voters;\n\n//     // Voter hash mapping\n    \n//     mapping (uint8=>VoterHash) voterhashes;\n\n//     //counter of number of candidates\n\n//     uint8 numCandidates;\n\n//     //counter of number of voters\n\n//     uint8 numVoters;\n//     uint8 voterCount;\n\n//     //function to add candidate to mapping\n\n//     function addCandidate(string memory candidate_name, string memory candidate_description, string memory imgHash,string memory email) public owner {\n//         uint8 candidateID = numCandidates++; //assign id of the candidate\n//         candidates[candidateID] = Candidate(candidate_name,candidate_description,imgHash,0,email); //add the values to the mapping\n//     }\n\n//     // function to add voterhash\n\n//     function addVoterHash(string memory hash) public owner {\n//         uint8 voterID=voterCount++;\n//         voterhashes[voterID] = VoterHash(hash); //add the values to the mapping\n//     }\n//      function uintToString(uint v) internal pure returns (string memory) {\n//         uint maxLength = 100;\n//         bytes memory reversed = new bytes(maxLength);\n//         uint i = 0;\n//         while (v != 0) {\n//             uint remainder = v % 10;\n//             v = v / 10;\n//             reversed[i++] = bytes1(uint8(48 + remainder));\n//         }\n//         bytes memory s = new bytes(i); // i is the actual length of the string\n//         for (uint j = 0; j < i; j++) {\n//             s[j] = reversed[i - j - 1]; // reverse the string\n//         }\n//         return string(s);\n//     }\n//       function findVoterHash(string memory hash) public view returns (string memory) {\n//         for (uint8 i = 0; i < voterCount; i++) {\n//             // string memory voterID = uintToString(i);\n//             if (keccak256(bytes(voterhashes[i].hash)) == keccak256(bytes(hash))) {\n//                 return \"found\";\n//             }\n//         }\n//         return \"Not found\";\n//     }\n\n \n       \n    \n\n//     //function to vote and check for double voting\n\n//     function vote(uint8 candidateID,string e) public {\n\n//         //if false the vote will be registered\n//         require(!voters[e].voted, \"Error:You cannot double vote\");\n        \n//         voters[e] = Voter (candidateID,true); //add the values to the mapping\n//         numVoters++;\n//         candidates[candidateID].voteCount++; //increment vote counter of candidate\n        \n//     }\n\n//     //function to get count of candidates\n\n//     function getNumOfCandidates() public view returns(uint8) {\n//         return numCandidates;\n//     }\n\n//     //function to get count of voters\n\n//     function getNumOfVoters() public view returns(uint8) {\n//         return numVoters;\n//     }\n\n//     //function to get candidate information\n\n//     function getCandidate(uint8 candidateID) public view returns (string memory, string memory, string memory, uint8,string memory) {\n//         return (candidates[candidateID].candidate_name, candidates[candidateID].candidate_description, candidates[candidateID].imgHash, candidates[candidateID].voteCount, candidates[candidateID].email);\n//     } \n\n//     //function to return winner candidate information\n\n//     function winnerCandidate() public view owner returns (uint8) {\n//         uint8 largestVotes = candidates[0].voteCount;\n//         uint8 candidateID;\n//         for(uint8 i = 1;i<numCandidates;i++) {\n//             if(largestVotes < candidates[i].voteCount) {\n//                 largestVotes = candidates[i].voteCount;\n//                 candidateID = i;\n//             }\n//         }\n//         return (candidateID);\n//     }\n    \n//     function getElectionDetails() public view returns(string, string,address) {\n//         return (election_name,election_description,election_authority);    \n//     }\n// }",
  "sourcePath": "E:\\College\\Project\\BlockChainVoting-master\\BlockChainVoting-master\\contracts\\Election.sol",
  "compiler": {
    "name": "solc",
    "version": "0.4.25+commit.59dbf8f1.Emscripten.clang"
  },
  "schemaVersion": "3.4.13",
  "updatedAt": "2023-05-07T12:28:44.315Z",
  "networkType": "ethereum",
  "devdoc": {
    "methods": {}
  },
  "userdoc": {
    "methods": {}
  }
}